[{
  "hash": "929ccc97e9cd4bd889a036c023f76292a1a66dcb0756590d2d44724e3f87f407",
  "hex": "0100000003623b9fc4f1d49eedea270b0c3127f69248b0c1fa93278843d8133e12d03f2fdf000000006a47304402203247e11eaaca90e95f11588a86bac8b32c806c69298582df4118017dc853c85d022027ff2cf251f88a3455e7227250f04846ddeb18fc1364dbb6a86d20f8bf012ffb012102e84a3584bd9187b605846f105d4e891e1763d73181adabfd20a10a6d97c866f8fffffffffb44642602cdcb3ecb69bed76d2de26921c1251b5a66f54daba893a0233efc84010000006b483045022100947eb9189711d4baf69c711f8177a59c7bccfef1ca6b527582f70deeea08b3f302206aa59f0af2e3432e559d481acd4d1aa1cd810f6c45f00d6cfdace70f14bdd661012102f746c738ed3974ac0a831c96c5530c827e2410df8b648e3a6598871748a78d7effffffff7f3c16db65cb2fb22e4bed9cb6eec1f06d08d8aa4dfd8612df58380b3b805f25010000006b4830450221009ff59c213973127c6e30a1fd62bba42a780e1cbffa5424288abcf1ae1fff25750220206ce2204c621ab5bdd8e31ec7fd8df12efa5cdedb53d0f7d6364014e20804ed0121025d730a258181bcd97130c3e8487d34a182d82216ebbfdf2e768d1d64cdfa684affffffff0228579e00000000001976a914c30f0ed3188cbafb6e73be19a9a58f40cb41878688ac92e41700000000001976a914638dae95925ca0d780e1507ec9c6662aed968a5888ac00000000",
  "type": "normal",
  "json": {
    "txid": "929ccc97e9cd4bd889a036c023f76292a1a66dcb0756590d2d44724e3f87f407",
    "version": 1,
    "locktime": 0,
    "vin": [{
      "txid": "df2f3fd0123e13d843882793fac1b04892f627310c0b27eaed9ed4f1c49f3b62",
      "vout": 0,
      "sequence": 4294967295,
      "n": 0,
      "scriptSig": {
        "hex": "47304402203247e11eaaca90e95f11588a86bac8b32c806c69298582df4118017dc853c85d022027ff2cf251f88a3455e7227250f04846ddeb18fc1364dbb6a86d20f8bf012ffb012102e84a3584bd9187b605846f105d4e891e1763d73181adabfd20a10a6d97c866f8",
        "asm": "304402203247e11eaaca90e95f11588a86bac8b32c806c69298582df4118017dc853c85d022027ff2cf251f88a3455e7227250f04846ddeb18fc1364dbb6a86d20f8bf012ffb[ALL] 02e84a3584bd9187b605846f105d4e891e1763d73181adabfd20a10a6d97c866f8"
      },
      "address": "LYubxLpWHoTz4Bsj77ESNm7qagDL2rbQmk",
      "valueSat": 5445880,
      "value": 0.0544588,
      "doubleSpentTxID": null
    }, {
      "txid": "84fc3e23a093a8ab4df5665a1b25c12169e22d6dd7be69cb3ecbcd02266444fb",
      "vout": 1,
      "sequence": 4294967295,
      "n": 1,
      "scriptSig": {
        "hex": "483045022100947eb9189711d4baf69c711f8177a59c7bccfef1ca6b527582f70deeea08b3f302206aa59f0af2e3432e559d481acd4d1aa1cd810f6c45f00d6cfdace70f14bdd661012102f746c738ed3974ac0a831c96c5530c827e2410df8b648e3a6598871748a78d7e",
        "asm": "3045022100947eb9189711d4baf69c711f8177a59c7bccfef1ca6b527582f70deeea08b3f302206aa59f0af2e3432e559d481acd4d1aa1cd810f6c45f00d6cfdace70f14bdd661[ALL] 02f746c738ed3974ac0a831c96c5530c827e2410df8b648e3a6598871748a78d7e"
      },
      "address": "LVZrn4wmHnxf8tcMRds85tYG3uM4Thi4EB",
      "valueSat": 6496962,
      "value": 0.06496962,
      "doubleSpentTxID": null
    }, {
      "txid": "255f803b0b3858df1286fd4daad8086df0c1eeb69ced4b2eb22fcb65db163c7f",
      "vout": 1,
      "sequence": 4294967295,
      "n": 2,
      "scriptSig": {
        "hex": "4830450221009ff59c213973127c6e30a1fd62bba42a780e1cbffa5424288abcf1ae1fff25750220206ce2204c621ab5bdd8e31ec7fd8df12efa5cdedb53d0f7d6364014e20804ed0121025d730a258181bcd97130c3e8487d34a182d82216ebbfdf2e768d1d64cdfa684a",
        "asm": "30450221009ff59c213973127c6e30a1fd62bba42a780e1cbffa5424288abcf1ae1fff25750220206ce2204c621ab5bdd8e31ec7fd8df12efa5cdedb53d0f7d6364014e20804ed[ALL] 025d730a258181bcd97130c3e8487d34a182d82216ebbfdf2e768d1d64cdfa684a"
      },
      "address": "LLvTnynp6fdGcTxFWEsJQum7BKi664yFaQ",
      "valueSat": 10000000,
      "value": 0.1,
      "doubleSpentTxID": null
    }],
    "vout": [{
      "value": "0.10377000",
      "n": 0,
      "scriptPubKey": {
        "hex": "76a914c30f0ed3188cbafb6e73be19a9a58f40cb41878688ac",
        "asm": "OP_DUP OP_HASH160 c30f0ed3188cbafb6e73be19a9a58f40cb418786 OP_EQUALVERIFY OP_CHECKSIG",
        "addresses": [
          "Ld1L4rwG8a3qDm6sX2pPDLAmVCr74Xd7So"
        ],
        "type": "pubkeyhash"
      },
      "spentTxId": "e7c618363fd2eda556f896638a18dd237eeeb88b953c727932abc2742ef7dd65",
      "spentIndex": 5,
      "spentHeight": 1229591
    }, {
      "value": "0.01565842",
      "n": 1,
      "scriptPubKey": {
        "hex": "76a914638dae95925ca0d780e1507ec9c6662aed968a5888ac",
        "asm": "OP_DUP OP_HASH160 638dae95925ca0d780e1507ec9c6662aed968a58 OP_EQUALVERIFY OP_CHECKSIG",
        "addresses": [
          "LUJLtSUdseFdWgMevbLE2MrprMbqA43d8Z"
        ],
        "type": "pubkeyhash"
      },
      "spentTxId": null,
      "spentIndex": null,
      "spentHeight": null
    }],
    "blockhash": "a3f0146fcce2b5c88db42d95296cedf7e4b3c5647c1c069ac8c89803c3af4c75",
    "blockheight": 1229583,
    "confirmations": 12,
    "time": 1498585542,
    "blocktime": 1498585542,
    "valueOut": 0.11942842,
    "size": 521,
    "valueIn": 0.21942842,
    "fees": 0.1
  }
}, {
  "hash": "af06a5807b9cb1b651c5684d126ebe3105a355535978c0237bfee174ff3c057f",
  "hex": "0100000001cb9bae918c8283e6d48d1cfaed055b3a06ea733ff7e577773a7257d0c1b25148000000006b483045022100c755e1305208ca282f1f133a18f3aea385b7d164bb79aa49751fdbc27d18259302204e30a254896c5093b98d02c534caaad6832766da13a7e9ccb3e03dcf0dba197b012103ff58b56e402f5cdea7c84c3bd9b69fd7db568f12a5a7af97175bddad21d64f24ffffffff030000000000000000086a064343020501508018e80b000000001976a91404b5e68cb1b1a6330007a37abc383c56747b9fbd88ac60ea0000000000001976a91404b5e68cb1b1a6330007a37abc383c56747b9fbd88ac00000000",
  "type": "cc",
  "json": {
    "txid": "af06a5807b9cb1b651c5684d126ebe3105a355535978c0237bfee174ff3c057f",
    "version": 1,
    "locktime": 0,
    "vin": [{
      "txid": "4851b2c1d057723a7777e5f73f73ea063a5b05edfa1c8dd4e683828c91ae9bcb",
      "vout": 0,
      "sequence": 4294967295,
      "n": 0,
      "scriptSig": {
        "hex": "483045022100c755e1305208ca282f1f133a18f3aea385b7d164bb79aa49751fdbc27d18259302204e30a254896c5093b98d02c534caaad6832766da13a7e9ccb3e03dcf0dba197b012103ff58b56e402f5cdea7c84c3bd9b69fd7db568f12a5a7af97175bddad21d64f24",
        "asm": "3045022100c755e1305208ca282f1f133a18f3aea385b7d164bb79aa49751fdbc27d18259302204e30a254896c5093b98d02c534caaad6832766da13a7e9ccb3e03dcf0dba197b[ALL] 03ff58b56e402f5cdea7c84c3bd9b69fd7db568f12a5a7af97175bddad21d64f24"
      },
      "address": "LKersev1K6FFj3PNdrUJ9kXjgyV2buwq1n",
      "valueSat": 199910000,
      "value": 1.9991,
      "doubleSpentTxID": null
    }],
    "vout": [{
      "value": "0.00000000",
      "n": 0,
      "scriptPubKey": {
        "hex": "6a06434302050150",
        "asm": "OP_RETURN 434302050150"
      },
      "spentTxId": null,
      "spentIndex": null,
      "spentHeight": null
    }, {
      "value": "1.99760000",
      "n": 1,
      "scriptPubKey": {
        "hex": "76a91404b5e68cb1b1a6330007a37abc383c56747b9fbd88ac",
        "asm": "OP_DUP OP_HASH160 04b5e68cb1b1a6330007a37abc383c56747b9fbd OP_EQUALVERIFY OP_CHECKSIG",
        "addresses": [
          "LKersev1K6FFj3PNdrUJ9kXjgyV2buwq1n"
        ],
        "type": "pubkeyhash"
      },
      "spentTxId": null,
      "spentIndex": null,
      "spentHeight": null
    }, {
      "value": "0.00060000",
      "n": 2,
      "scriptPubKey": {
        "hex": "76a91404b5e68cb1b1a6330007a37abc383c56747b9fbd88ac",
        "asm": "OP_DUP OP_HASH160 04b5e68cb1b1a6330007a37abc383c56747b9fbd OP_EQUALVERIFY OP_CHECKSIG",
        "addresses": [
          "LKersev1K6FFj3PNdrUJ9kXjgyV2buwq1n"
        ],
        "type": "pubkeyhash"
      },
      "spentTxId": null,
      "spentIndex": null,
      "spentHeight": null
    }],
    "blockhash": "dc22491c471c7cca825107c5c284cde9b3449a9a005e21e2abaee85305361207",
    "blockheight": 1229234,
    "confirmations": 361,
    "time": 1498526262,
    "blocktime": 1498526262,
    "valueOut": 1.9982,
    "size": 243,
    "valueIn": 1.9991,
    "fees": 0.0009
  }
}, {
  "hash": "2caec7542c2d6874bb94c8c5fff745845db34273838c660180b4cf3e9087ed09",
  "hex": "01000000023ac673518549894f3779bd848a56c0f44f9db04648cabd92bf760aa381e97ed6010000006b48304502210080ce4b801d2a5f2e0ec9f86e49bf728fd92effdb8005a6ac83ff440f75a4cf8002207835d7e880f5266d6fc3e09b20daefe7844a7f382d71f73b4be9371ee6abd7fa01210273c6b5fbf6a42256645df54bca4c491e3c4f3c13e64f08f365050454a3204daeffffffff632fd4c42c952bf4653226fc38e580c3fc3ea962114ee8867557d718f25c5850010000006b483045022100ef51ced9182ff671461604bb3ff0e0e6df02f61dd04fc672cbc859430928497102200153176e02255f6d8d5fa657e422f53da4f07a8030f5d417a05e02c6f00c4aa50121038402eb6fa07174c4fde02c6d8a18ee93e277096af6ef1c6f2fd064beaa5f8182ffffffff02c04c5f02000000001976a914eb3589d2d8819d5b92d66cf41e8c9e49f536876488ac08874100000000001976a9140bcc58f9677f04ae961b54713015295adc2790e088ac00000000",
  "type": "normal",
  "json": {
    "txid": "2caec7542c2d6874bb94c8c5fff745845db34273838c660180b4cf3e9087ed09",
    "version": 1,
    "locktime": 0,
    "vin": [{
      "txid": "d67ee981a30a76bf92bdca4846b09d4ff4c0568a84bd79374f8949855173c63a",
      "vout": 1,
      "sequence": 4294967295,
      "n": 0,
      "scriptSig": {
        "hex": "48304502210080ce4b801d2a5f2e0ec9f86e49bf728fd92effdb8005a6ac83ff440f75a4cf8002207835d7e880f5266d6fc3e09b20daefe7844a7f382d71f73b4be9371ee6abd7fa01210273c6b5fbf6a42256645df54bca4c491e3c4f3c13e64f08f365050454a3204dae",
        "asm": "304502210080ce4b801d2a5f2e0ec9f86e49bf728fd92effdb8005a6ac83ff440f75a4cf8002207835d7e880f5266d6fc3e09b20daefe7844a7f382d71f73b4be9371ee6abd7fa[ALL] 0273c6b5fbf6a42256645df54bca4c491e3c4f3c13e64f08f365050454a3204dae"
      },
      "address": "LNzAC7Gawowhg54QimHpJxMU5oQDjLaBd7",
      "valueSat": 32959804,
      "value": 0.32959804,
      "doubleSpentTxID": null
    }, {
      "txid": "50585cf218d7577586e84e1162a93efcc380e538fc263265f42b952cc4d42f63",
      "vout": 1,
      "sequence": 4294967295,
      "n": 1,
      "scriptSig": {
        "hex": "483045022100ef51ced9182ff671461604bb3ff0e0e6df02f61dd04fc672cbc859430928497102200153176e02255f6d8d5fa657e422f53da4f07a8030f5d417a05e02c6f00c4aa50121038402eb6fa07174c4fde02c6d8a18ee93e277096af6ef1c6f2fd064beaa5f8182",
        "asm": "3045022100ef51ced9182ff671461604bb3ff0e0e6df02f61dd04fc672cbc859430928497102200153176e02255f6d8d5fa657e422f53da4f07a8030f5d417a05e02c6f00c4aa5[ALL] 038402eb6fa07174c4fde02c6d8a18ee93e277096af6ef1c6f2fd064beaa5f8182"
      },
      "address": "LaxTC8W9KqjpnNJvV7Uauf8ak2h4VW7Fjj",
      "valueSat": 11334604,
      "value": 0.11334604,
      "doubleSpentTxID": null
    }],
    "vout": [{
      "value": "0.39800000",
      "n": 0,
      "scriptPubKey": {
        "hex": "76a914eb3589d2d8819d5b92d66cf41e8c9e49f536876488ac",
        "asm": "OP_DUP OP_HASH160 eb3589d2d8819d5b92d66cf41e8c9e49f5368764 OP_EQUALVERIFY OP_CHECKSIG",
        "addresses": [
          "LgfdCCpR8uGmZJvPHycgMd3zZnQGiwgVfk"
        ],
        "type": "pubkeyhash"
      },
      "spentTxId": "27f4a0a89ac7baf3fec334af90c240cce6f22f19e5dbffa44ffe205ca0c7fb84",
      "spentIndex": 0,
      "spentHeight": 1229592
    }, {
      "value": "0.04294408",
      "n": 1,
      "scriptPubKey": {
        "hex": "76a9140bcc58f9677f04ae961b54713015295adc2790e088ac",
        "asm": "OP_DUP OP_HASH160 0bcc58f9677f04ae961b54713015295adc2790e0 OP_EQUALVERIFY OP_CHECKSIG",
        "addresses": [
          "LLJLVe5yA81RpkrCntyTNsmstrRJ5M8WUB"
        ],
        "type": "pubkeyhash"
      },
      "spentTxId": null,
      "spentIndex": null,
      "spentHeight": null
    }],
    "blockhash": "a3f0146fcce2b5c88db42d95296cedf7e4b3c5647c1c069ac8c89803c3af4c75",
    "blockheight": 1229583,
    "confirmations": 12,
    "time": 1498585542,
    "blocktime": 1498585542,
    "valueOut": 0.44094408,
    "size": 374,
    "valueIn": 0.44294408,
    "fees": 0.002
  }
}]
